:020000040800F2
:10000000700700204901000803040008FB030008F2
:10001000FF03000891010008470A000800000000E3
:10002000000000000000000000000000C105000802
:10003000950100080000000089040008D5060008AA
:100040006301000863010008630100086301000800
:1000500063010008630100086301000863010008F0
:1000600063010008630100086301000863010008E0
:1000700063010008630100086301000863010008D0
:1000800063010008630100086301000863010008C0
:1000900063010008630100086301000863010008B0
:1000A00063010008630100086301000863010008A0
:1000B0006301000863010008630100086301000890
:1000C0006301000863010008630100086301000880
:1000D0006301000839070008630100086301000894
:1000E0006301000863010008630100086301000860
:1000F0006301000863010008630100086301000850
:10010000630100086301000863010008630100083F
:10011000630100086301000863010008630100082F
:10012000630100086301000863010008630100081F
:10013000DFF810D000F01AF800480047AD0A0008B8
:10014000AFF300807007002006488047064800474C
:10015000FEE7FEE7FEE7FEE7FEE7FEE7FEE7FEE777
:10016000FEE7FEE7D906000831010008064C074DFE
:1001700006E0E06840F0010394E807009847103477
:10018000AC42F6D3FFF7D8FF4C0B00086C0B00080D
:1001900000BFFEE770470EB50121084600F086F962
:1001A0000221042000F07EF80420019000208DF848
:1001B00008000C208DF8090001208DF80A0001A824
:1001C00000F010F808208DF8000002208DF80100E2
:1001D0008DF8020001208DF80300684600F012F946
:1001E0000EBD0000002123498279002A3AD00A4638
:1001F000126803689A430B461A600A1D1268036866
:100200009A430B1D1A60027911440A6803681A4365
:100210000A60184A0832126803689A43154B08337B
:100220001A601A1D126803689A43124B0C331A6045
:100230004279102A0ED11A1F126803681A430D4B17
:1002400008331A601A1D126803681A43094B0C33ED
:100250001A600DE00749427911440A6803681A439D
:100260000A6005E0027911440A6803689A430A604B
:10027000704700000004014008B50121042000F08F
:1002800015F94FF4C060ADF8000003208DF80200AE
:1002900004208DF803006946014800F023F808BDEA
:1002A0000008014030B500228B071C0F0F2303FA12
:1002B00004F20B4B8C1053F824309343084C8D10F0
:1002C00044F8253023468C1053F824308C07240F33
:1002D00000FA04F42343024C8D1044F8253030BD5D
:1002E000080001402DE9F0410246002500260020CB
:1002F00000230024002791F803C00CF00F0591F8AB
:1003000003C00CF0100CBCF1000F03D091F802C038
:100310004CEA050591F800C0BCF1000F31D014681B
:1003200000202BE04FF0010C0CFA00F3B1F800C0F4
:100330000CEA03069E4220D183004FF00F0C0CFA0A
:1003400003F7BC4305FA03FC4CEA040491F803C02C
:10035000BCF1280F06D14FF0010C0CFA00FCC2F8DA
:1003600014C00AE091F803C0BCF1480F05D14FF06A
:10037000010C0CFA00FCC2F810C0401C0828D1D3B4
:100380001460B1F800C0BCF1FF0F34DD54680020E8
:100390002EE000F1080C4FF0010808FA0CF3B1F858
:1003A00000C00CEA03069E4221D183004FF00F0CDF
:1003B0000CFA03F7BC4305FA03FC4CEA040491F879
:1003C00003C0BCF1280F05D100F1080C08FA0CF8A5
:1003D000C2F8148091F803C0BCF1480F07D100F1B6
:1003E000080C4FF0010808FA0CF8C2F81080401C05
:1003F0000828CED35460BDE8F08100BFFEE700BFFF
:10040000FEE7704770B5002100230F22C47804B3C3
:10041000154C246804F4E064C4F5E064210AC1F1D9
:100420000403CA40447804FA03F184781440214359
:1004300009010E4C0678A155047804F01F0501242B
:10044000AC4005786D11AD0005F1E025C5F800411F
:1004500009E0047804F01F050124AC40044D06783F
:10046000761145F8264070BD0CED00E000E400E098
:1004700080E100E002490143024A11607047000038
:100480000000FA050CED00E07047000029B1064AB3
:1004900012690243044B1A6104E0034A1269824361
:1004A000014B1A61704700000010024029B1064A52
:1004B00092690243044B9A6104E0034A92698243C1
:1004C000014B9A61704700000010024029B1064AB2
:1004D000D2680243044BDA6004E0034AD2688243E4
:1004E000014BDA60704700000010024030B5002177
:1004F0000022002400232D4D6D6805F00C0121B170
:10050000042905D0082923D105E0294D056022E002
:10051000274D05601FE0254D6D6805F47012234DD1
:100520006D6805F48034022505EB92421CB9214D1B
:10053000554305600BE01D4D6D6805F400351DB198
:100540001C4D5543056002E0194D5543056002E01E
:10055000174D056000BF00BF144D6D6805F0F00138
:100560000909154D6B5C0568DD4045600F4D6D68F0
:1005700005F4E061090A104D6B5C4568DD4085605B
:100580000A4D6D6805F46051C90A0B4D6B5C4568F6
:10059000DD40C560054D6D6805F44041890B074D90
:1005A0006B5CC568B5FBF3F5056130BD001002401A
:1005B00000127A0000093D002600002036000020CD
:1005C000704710B500F002F810BD00000CB5002017
:1005D000019000903348006840F480303149086051
:1005E00000BF3048006800F4003000900198401CC3
:1005F0000190009818B90198B0F5A06FF1D1294881
:10060000006800F4003010B10120009001E00020EB
:1006100000900098012843D12348006840F0100062
:10062000214908600846006820F003000860084679
:10063000006840F0020008601A48406819494860A4
:100640000846406848600846406840F4806048605A
:100650000846406820F47C1048600846406840F432
:10066000E81048600846006840F08070086000BFED
:100670000C48006800F000700028F9D00948406874
:1006800020F00300074948600846406840F0020037
:10069000486000BF0348406800F00C000828F9D10A
:1006A0000CBD00000010024000200240042808D1C8
:1006B0004FF0E021096941F004014FF0E02211619F
:1006C00007E04FF0E021096921F004014FF0E0223A
:1006D000116170477047000010B51348006840F082
:1006E00001001149086008464068104908400E4959
:1006F0004860084600680E4908400B4908600846F3
:10070000006820F4802008600846406820F4FE005D
:1007100048604FF41F008860FFF753FF4FF0006000
:100720000449086010BD0000001002400000FFF8FE
:10073000FFFFF6FE08ED00E010B540F225511D4820
:1007400000F0C0F810B31B4800F078F9C4B21A48A2
:10075000008800F40040C8B91748008800F48040C1
:1007600060B10A2C03D000201349088020E0124811
:10077000008840F400401049088019E00D2C06D193
:100780000D48008840F480400B49088010E00A487A
:100790000088C0F30D0009490C5407480088401C2C
:1007A0000549088008460088C72801DD0020088028
:1007B00010BD00000038014024000020A8000020E7
:1007C00000B585B001218803FFF770FE154800F0E1
:1007D0002BF84FF4964001900020ADF80800ADF8DA
:1007E0000A00ADF80C00ADF810000C20ADF80E00BA
:1007F00001A90C4800F0B6F825208DF80000032070
:100800008DF801008DF8020001208DF80300684684
:10081000FFF7F8FD012240F22551024800F07CF874
:1008200005B000BD0038014010B5044620488442A0
:1008300009D101218803FFF749FE00214FF48040D0
:10084000FFF744FE32E01B48844209D101214804ED
:10085000FFF71CFE00214FF40030FFF717FE25E0E4
:100860001548844209D101218804FFF70FFE0021B9
:100870004FF48020FFF70AFE18E01048844209D1A7
:100880000121C804FFF702FE00214FF40020FFF70A
:10089000FDFD0BE00A48844208D101210805FFF75D
:1008A000F5FD00214FF48010FFF7F0FD10BD0000B2
:1008B000003801400044004000480040004C004027
:1008C0000050004070B5024600240023002500209F
:1008D00040F66A16B14200D100BFC1F3421501F0E3
:1008E0001F03012606FA03F3012D02D19689334036
:1008F00006E0022D02D1168A334001E0968A334089
:100900000C12012606FA04F41688344013B10CB117
:10091000012000E0002070BDF0B503460024002651
:100920000025002040F66A17B94200D100BF1846E2
:10093000C1F3421401F01F06012707FA06F5012C46
:1009400001D10C3004E0022C01D1103000E0143051
:100950001AB107682F43076002E00768AF430760DA
:10096000F0BD00002DE9F04786B005460E46002494
:10097000A24600BFA1460027B08900B100BF2F46A4
:100980002C8A4CF6FF700440F08804432C82AC891A
:100990004EF6F3100440B08831890843718908434A
:1009A0000443AC81AC8A4FF6FF400440B089044355
:1009B000AC8201A8FFF79AFD1F48874202D1DDF8FB
:1009C00010A001E0DDF80CA0A88900F4004040B1BF
:1009D0000AEBCA0000EB0A1031684900B0FBF1F8DD
:1009E00007E00AEBCA0000EB0A1031688900B0FB8F
:1009F000F1F86420B8FBF0F004012009642101FB48
:100A00001089A88900F4004040B1322000EBC900F1
:100A1000B0FBF1F000F00700044308E0322000EBE7
:100A200009106421B0FBF1F000F00F0004432C81A9
:100A300006B0BDE8F0870000003801400146888814
:100A4000C0F30800704700BFFEE702E008C8121FAD
:100A500008C1002AFAD170477047002001E001C1A7
:100A6000121F002AFBD1704710B56FF00400FFF78A
:100A70001DFE0A4800680A49B0FBF1F009490870F8
:100A80000846007800EB4001C1EBC0104FF6FF7143
:100A900001EAC0000449088010BD000008000020E1
:100AA00000127A001C0000201E000020FFF7DCFF6F
:100AB0004FF4A060FFF7DEFCFFF7DEFBFFF780FEE0
:100AC000FFF769FB642000F00BF803490860034856
:100AD000086000BFFEE70000040000204400002082
:100AE000F0B50B30154D20F007010024144A0FE03B
:100AF00003688B420BD38B4205D95E1A43184768B3
:100B0000C3E9006700E04368136002C004E0021D0F
:100B100010680028ECD12046002802D1286808B1CE
:100B20000020F0BD064A07481060074A121A22F05A
:100B30000702C0E9002401202860D7E74000002018
:100B40003C00002074010020700300206C0B0008A2
:100B500000000020440000004A0A0008B00B000812
:100B6000440000202C0700005A0A00080000000082
:100B70000000000000A24A04000000000000000085
:100B8000010203040607080900000000000000003D
:100B90000000000000000102030401020304060734
:100BA0000809020406080000000000000000000020
:0400000508000149A5
:00000001FF
