:020000040800F2
:10000000F840002099010008010E00081D0B0008AF
:10001000FF0D00089D09000889220008000000006B
:1000200000000000000000000000000001010008C6
:10003000B70900080000000045010008151C000871
:10004000B3010008B3010008B3010008C11600089D
:10005000B3010008B3010008B3010008B3010008B0
:10006000B3010008B3010008B3010008B3010008A0
:10007000B3010008B3010008B3010008B301000890
:10008000B3010008B3010008B3010008B301000880
:10009000B3010008B3010008B3010008B301000870
:1000A000B3010008B3010008B3010008B301000860
:1000B000B3010008B3010008B3010008B301000850
:1000C000B3010008B3010008B3010008B301000840
:1000D000B3010008551F00083D200008CD2000088E
:1000E000B3010008B3010008B3010008DFF80CD029
:1000F00000F0AEFA0048004719300008F840002030
:10010000224B19680868B0E8F00F80F30988BFF344
:100110006F8F4FF0000080F311884EF00D0E704786
:100120000000000006480068006880F3088862B696
:1001300061B6BFF34F8FBFF36F8F00DF00BF00BF0B
:1001400008ED00E0EFF30980BFF36F8F0F4B1A68E3
:1001500020E9F00F106008B54FF0500080F31188CF
:10016000BFF34F8FBFF36F8F05F008FD4FF0000016
:1001700080F31188BDE8084019680868B0E8F00FFE
:1001800080F30988BFF36F8F704700BF9000002095
:10019000EFF3058070470000064880470648004797
:1001A000FEE7FEE7FEE7FEE7FEE7FEE7FEE7FEE727
:1001B000FEE7FEE7291C0008ED00000840EA010305
:1001C0009B0703D009E008C9121F08C0042AFAD20D
:1001D00003E011F8013B00F8013B521EF9D27047D1
:1001E000D2B201E000F8012B491EFBD27047002279
:1001F000F6E710B513460A4604461946FFF7F0FF26
:10020000204610BD30B505462A460B4612F8010BB4
:1002100013F8014B08B1A042F8D01CB1002802D05D
:100220006D1CF1E7284630BD421C10F8011B002967
:10023000FBD1801A704710B5002200E0521C835C8D
:100240008C5CA34201D1002BF8D1D8B2E1B2401AA4
:1002500010BD30B50B46014600202022012409E0E4
:1002600021FA02F59D4205D303FA02F5491B04FA6F
:1002700002F52844151EA2F10102F1DC30BD2DE982
:10028000F05F0546002092469B468846064681461A
:1002900040241BE0284641464746224600F0F9F933
:1002A00053465A46C01A914110D311461846224669
:1002B00000F0E0F92D1A67EB01084F4622460120B5
:1002C000002100F0D7F917EB00094E41201EA4F1E0
:1002D0000104DFDC484631462A464346BDE8F09F2C
:1002E0002DE9FE4F804681EA0300C00F0C460090C6
:1002F00021F0004123F00045B8EB0200A94105D2EE
:100300004046214690461C460B46024623F00040DC
:10031000104347D0270DC7F30A00C3F30A510290D8
:10032000401A019040286BDAC3F3130040F4801B9D
:100330000098924620B10023D2EB030A63EB0B0B2B
:1003400001985946C0F14002504600F093F9064624
:100350000D4650465946019A00F0ABF910EB0800E3
:100360006141002487EA115284EAE7731A4340D0BE
:10037000009A62B3019A012A4FEA075215DC001B6A
:1003800061EB02014FF0004202EA0752CDE9004260
:10039000001C41F5801132462B4600F0ABF903B04A
:1003A000BDE8F08F40462146F9E7001B61EB0201F2
:1003B000001C41F5801300185B412018A2F50017BE
:1003C00047EB030140EAD570B6196D4111E06D08A5
:1003D0004FEA360645EAC0754FEA0752001B61EB4B
:1003E0000201001C41F5801149084FEA3000001954
:1003F000514132462B4603B0BDE8F04F00F06BB9D7
:100400000098012240000023D0EB020263EBE0736E
:10041000009821464FEAE074B8EB000061EB04015C
:10042000E9E783F000435BE781F0004158E72DE9FD
:10043000FE4F81EA030404F0004421F000410094DF
:100440004FF0000B23F0004350EA01045ED052EA63
:1004500003045BD0C3F30A54C1F30A552C44A4F23D
:10046000F3340194A0FB0254C1F3130141F4801151
:10047000C3F3130343F4801301FB024400FB034E58
:10048000840A970A44EA815447EA8357A4FB076821
:1004900002958D0A05FB07854FEA932C04FB0C544B
:1004A0002705029D4FEA065847EA1637B5EB0805BF
:1004B0006EEB070C870E920E47EA811742EA831211
:1004C000A7FB0201B6EB0B0164EB00042B0D43EA22
:1004D0000C335E1844EB1C50DA465146E7FB020130
:1004E000C5F313044FEA0B3343EA14534FEA0432C3
:1004F000019C43EA0603A4F10C040294009CCDE99C
:1005000000B400F0F7F803B0BDE8F08F002001461A
:10051000F9E72DE9F04D81EA030404F0004B21F0E6
:10052000004514464FF0000A23F0004150EA05024E
:1005300020D054EA01021DD0C5F30A570246C5F384
:100540001303C1F31300C1F30A5640F4801543F4BA
:100550008013A7EB0608101BD64608F2FD3873EB94
:10056000050002D308F1010801E092185B41B8F1DF
:10057000000F03DA00200146BDE8F08D00204FF4A3
:100580008011064684460EE0171B73EB050705D362
:10059000121B63EB050306434CEA010C49084FEAC2
:1005A000300092185B4150EA0107EDD152EA030096
:1005B00012D082EA040083EA0501084305D0101B2B
:1005C000AB4106D20122002306E000224FF0004397
:1005D00002E06FF0010253101AEB06004CEB0851D9
:1005E00010EB0A0041EB0B01BDE8F04D00F073B8D1
:1005F000C1F30A52C1F3130140F2FF3341F48011F9
:100600009A4202DA00200146704740F233439A4290
:10061000A2F2334202DC524200F03BB800F02AB8AA
:1006200030B5041E71F1000404DB4FF00044404279
:1006300064EB0101141E73F1000405DB1C464FF04E
:100640000043524263EB0403994208BF904230BD1D
:10065000064C074D06E0E06840F0010394E807000F
:1006600098471034AC42F6D3FFF744FD7C95000860
:100670009C950008202A04DB203A00FA02F10020B1
:1006800070479140C2F1200320FA03F319439040D0
:100690007047202A04DB203A21FA02F0002170473B
:1006A00021FA02F3D040C2F12002914008431946DA
:1006B0007047202A06DBCB17203A41FA02F043EAC2
:1006C000E07306E041FA02F3D040C2F1200291400B
:1006D00008431946704710B5141E73F1000408DA78
:1006E000401C41F1000192185B411A4301D120F0F6
:1006F000010010BD2DE9F04D92469B4611B1B1FAB3
:1007000081F202E0B0FA80F220329046FFF7B2FFA9
:1007100004460F4640EA0A0041EA0B0153465A4696
:10072000084313D0114653EA010019D0C8F1400222
:100730005046FFF7AEFF05460E4650465946424624
:10074000FFF798FF084305D0012004E02046394612
:10075000BDE8F08D0020054346EAE0762C433743A0
:100760000A986305E40AA0EB08000022FD0A44EAA7
:1007700047540A3002D500200146E9E70105101967
:100780006941DDE9084500196941BDE8F04DA2E77E
:1007900010B54FF480710348FFF729FD024900208E
:1007A000488010BDF83900200A01002010B5FFF77D
:1007B000EFFF1DA11DA000F08FF81EA11EA000F0EC
:1007C0008BF802E0322002F0F3FA1AA11FA000F029
:1007D00083F80028F6D102E0322002F0E9FA21A1E4
:1007E00023A000F079F80028F6D102E0322002F0D0
:1007F000DFFA10A127A000F06FF80028F6D102E080
:10080000322002F0D5FA28A129A000F065F80028CE
:10081000F6D102E0322002F0CBFA06A12AA000F0C5
:100820005BF80028F6D110BD2000000041540D0AED
:10083000000000004F4B000041542B4D44495343EE
:100840004F4E4E4543540D0A0000000041542B4DBD
:10085000434F4E4649473D746573742C27272C2718
:10086000270D0A00434F4E4E454354204F4B000086
:1008700041542B4D495053544152543D3132342E42
:100880003232312E3135382E32312C313838330D69
:100890000A00000041542B4D434F4E4E4543543DFA
:1008A000312C36300D0A000053554241434B0000B5
:1008B00041542B4D5355423D2F6D79726669642F1B
:1008C0007375622C300D0A0041542B4D5154544D18
:1008D00053474745540D0A0070B50E460546C824D7
:1008E000FFF7A2FC82B229460B4801F0CFFC0EE0D4
:1008F00000F016F840B931460848FFF783FC18B1FC
:10090000FFF746FF002070BD0A2002F051FA641E76
:10091000E4B2EDD2012070BD00440040F83900205F
:100920000648418831B18288914205D10021418039
:1009300008467047012070478180FBE70A010020CC
:1009400070B50122074D14032146284600F0E1F856
:10095000FA2002F003FA21462846BDE87040002242
:1009600000F0D7B8000C014010B5012000F066FD82
:10097000BDE81040002000F061BD000008B502494C
:1009800008440090008808BD006C004008B5024A89
:1009900010440090016008BD006C0040FEE770B597
:1009A0000C46054600F0ACFF20EA04012846BDE8ED
:1009B000704001F085BC704710B5042001F01EF9AD
:1009C0000C480D4902680D48B2FBF1F3B2FBF1F19E
:1009D0004FF47A72514301220CC04FF0E0200269BB
:1009E00042F0020202614161016941F001010161CD
:1009F00010BD00002000002040420F000000002039
:100A0000F0B5CA78002502F00F03D20601D58A7826
:100A100013430A784FF00F0E12F0FF0F4FF0010250
:100A20001CD004680F8802FA05F63740B74211D18E
:100A30004FEA850C0EFA0CF724EA070703FA0CF4C8
:100A40003C43CF78282F02D0482F02D002E04661E5
:100A500000E006616D1C082DE4D304600C88FF2CB7
:100A60001ED944685FF0000606F1080702FA07F590
:100A70000F882F40AF420FD14FEA860C0EFA0CF7C9
:100A8000BC4303FA0CF73C43CF78282F00D14561D3
:100A9000CF78482F00D10561761C082EE4D344603E
:100AA000F0BD0000F0B5144C002801DAE36900E065
:100AB0006368420D120185B2C0F301579540C0F33F
:100AC0000346032F05D0C2020AD50322B240934346
:100AD00007E023F07062636823F07063636002E0F4
:100AE000AB4343F0706201B12A43002801DAE261AE
:100AF000F0BD6260F0BD0000000001400246002031
:100B000092680A4200D0012070474161704701613C
:100B100070470AB10161704741617047FEE700000C
:100B200008B50121082000F07DFC4FF44060ADF8CD
:100B3000000010208DF8030003208DF802006946A4
:100B40000148FFF75DFF08BD000C014008B5012119
:100B5000082000F067FC4FF40060ADF800000320AF
:100B60008DF8020004208DF8030069460148FFF764
:100B700047FF08BD000C014008B50121082000F026
:100B800051FC4FF40060ADF8000003208DF8020026
:100B900010208DF8030069460148FFF731FF08BDBA
:100BA000000C014070B5FFF7E7FF0122104DD402A1
:100BB00021462846FFF7ADFF01229602314628461E
:100BC000FFF7A7FF052002F001F900222146284681
:100BD000FFF79FFF052002F0F9F800223146284672
:100BE000FFF797FFBDE87040052002F0EFB8000066
:100BF000000C014070B5FFF7BFFF114D4FF40064CA
:100C0000002221462846FFF784FF66100022314665
:100C10002846FFF77EFF052002F0D8F80122314672
:100C20002846FFF776FF052002F0D0F80122214682
:100C30002846FFF76EFFBDE87040052002F0C6B8F9
:100C4000000C014070B50024FFF780FF0F4E4FF4F9
:100C50008065002229463046FFF75BFF052002F041
:100C6000B5F8012229463046FFF753FF69003046A8
:100C7000FFF744FF00B10124052002F0A7F800228D
:100C800029463046FFF745FF204670BD000C014065
:100C900081070CD16421B0FBF1F201FB120141B9D3
:100CA0004FF4C871B0FBF1F201FB120008B1002053
:100CB000704701207047000008B50121042000F0B2
:100CC000B1FB04208DF80300F020ADF800000320F4
:100CD0008DF8020069460248FFF792FE08BD000049
:100CE0000008014020210148FFF711BF000C01401E
:100CF00020210148FFF709BF000C014040210148B5
:100D0000FFF705BF000C014040210148FFF7FDBE81
:100D1000000C014080210148FFF7F9BE000C0140A2
:100D200080210148FFF7F1BE000C01400448007823
:100D300018B1012803D1FFF7DBBFFFF7D3BF70471E
:100D4000100000200448407818B1012803D1FFF7B3
:100D5000DBBFFFF7D3BF7047100000200448807846
:100D600018B1012803D1FFF7DBBFFFF7D3BF7047EE
:100D70001000002038B50121082000F053FBE020CE
:100D8000ADF8000010208DF803000320054C8DF80D
:100D9000020069462046FFF733FEE0212046FFF7B8
:100DA000B4FE38BD000C014010B5412826D1082101
:100DB0000846FFF7F4FD3D21112001F081FA86215C
:100DC000172001F07DFA7F21262001F079FA1E21FB
:100DD0002D2001F075FA00212C2001F071FA8D21EF
:100DE0002A2001F06DFA3E212B2001F069FA022041
:100DF00001F0ECFFBDE8104000F066B910BDFEE761
:100E00007047000070B50F23C47801780122F4B157
:100E1000144C2468457804F4E064C4F5E064240AC2
:100E2000C4F10406E3408478B5401C402C4301F132
:100E3000E021230181F80034007800F01F018A408E
:100E40004009800000F1E020C0F8002170BD01F0F1
:100E50001F0082404809800000F1E020C0F8802196
:100E600070BD00000CED00E0024908430249086033
:100E7000704700000000FA050CED00E070B500249A
:100E8000002104F1B00000F012F90021084600F042
:100E90000EF90021102000F00AF9002501210020A0
:100EA00000F005F96D1CEDB2802DF7D3641CE4B29F
:100EB000082CE5D370BD000008B50121082000F022
:100EC000B1FA4FF44060ADF8000003208DF8020045
:100ED00010208DF8030069463948FFF791FD4FF463
:100EE000487001F065FF0021AE2000F0E0F800211D
:100EF000084600F0DCF80021102000F0D8F80021AE
:100F0000402000F0D4F80021B02000F0D0F80021FB
:100F1000812000F0CCF80021FF2000F0C8F800216B
:100F2000A12000F0C4F80021A62000F0C0F80021A4
:100F3000A82000F0BCF800213F2000F0B8F8002104
:100F4000C82000F0B4F80021D32000F0B0F8002150
:100F5000084600F0ACF80021D52000F0A8F80021E8
:100F6000802000F0A4F80021D82000F0A0F8002193
:100F7000052000F09CF80021D92000F098F800210D
:100F8000F12000F094F80021DA2000F090F8002120
:100F9000122000F08CF80021DB2000F088F80021FE
:100FA000302000F084F800218D2000F080F800212E
:100FB000142000F07CF80021AF2000F078F808BD84
:100FC000000C014010B50A460446002102F1B000B1
:100FD00000F06DF8102040EA1410002100F067F8CE
:100FE00004F00F00BDE81040002100F060B80000E0
:100FF0002DE9F041203A00240D468046D6B27F28E4
:1010000003D900208D1C8046EDB2102B294610D04C
:10101000FFF7D8FF164906EB460001EB400501211A
:10102000285D00F044F8641CE4B2062CF7D3BDE858
:10103000F081FFF7C7FF0F4F04EB06100121385C6A
:1010400000F035F8641CE4B2082CF5D36D1CE9B24D
:101050004046FFF7B7FF002404EB06103844012197
:10106000007A00F024F8641CE4B2082CF4D3DEE724
:101070008C680008B46A00082DE9F04198461746CC
:101080000E46044600250DE0434631462046FFF754
:10109000AFFF0834E4B2782C02D90024B61CF6B2B3
:1010A0006D1CEDB27A5D002AEED1BDE8F081C0B2D0
:1010B00009B101F076B901F05DB90000014908629B
:1010C0007047000000000E4210B5142000F018FC1C
:1010D000800705D10321BDE81040142000F02EBD8B
:1010E00010BD70B50646082188B000240846FFF7F9
:1010F00056FC00210D2001F0E3F880210E20FFF7BF
:101100004EFC93208DF8040020208DF8050006A8E1
:1011100001AB0090022219460C2000F018F8054699
:1011200026280DD1002101A8425C7254425C491C62
:101130005440C9B20429F7D3405CA04200D0BB257B
:1011400080210E2000F0FAFC08B0284670BD2DE981
:10115000FF5F0027BB25DDF838A016468B46814689
:10116000B8460C2805D0B9F10E0F05D11227102072
:1011700001E077273020804647F08001022001F00F
:101180009FF880210420FFF70AFC0021012001F0D4
:1011900097F880210A2000F0D1FC002405E01BF81C
:1011A0000410092001F08CF8641CB442F7D34946BE
:1011B000012001F085F8B9F10C0F03D180210D2039
:1011C00000F0BCFC4FF47A76042000F099FB044652
:1011D000761E04D0E00702D114EA080FF4D0802173
:1011E0000D20FFF7DCFB36B1062000F089FB10F084
:1011F0001B0F0CD0BB2580210C2000F09FFC002190
:10120000012001F05DF804B02846BDE8F09F2625D6
:101210003C40E00700D0CC25B9F10C0FEBD10A20FF
:1012200000F06EFB04460C2000F06AFB10F0070093
:101230004FEAC40101D008390144CAF8001024B1B2
:10124000122C04D91224002603E00124FBE7002617
:1012500005E0092000F054FB03998855761CA6424E
:10126000F7D3C8E730B50C460546082187B00846D5
:10127000FFF795FB07210D2001F022F80321142030
:1012800000F05CFC06A801AB00908DF80450012230
:1012900019460C20FFF75BFF262802D1069910297A
:1012A00002D0BB2007B030BD9DF8041021709DF81E
:1012B00005106170F6E7000070B51F4D4FF4007423
:1012C00021462846FFF723FC012001F07FFD21463F
:1012D0002846FFF71AFC012001F078FD2146284638
:1012E000FFF715FC012001F071FD0F21012000F036
:1012F000E7FF012000F004FBC006FAD4012001F052
:1013000065FD3D21112000F0DBFF1E212D2000F0A6
:10131000D7FF00212C2000F0D3FF8D212A2000F0E0
:10132000CFFF3E212B2000F0CBFFBDE870404021D5
:10133000152000F0C5BF0000000C014010B500F002
:1013400013F8084C4FF400712046FFF7E0FBA1159D
:101350002046FFF7DCFBFFF7AFFFBDE81040412060
:10136000FFF722BD000C0140F8B50121082000F074
:1013700059F84FF48070ADF800000324224E8DF828
:10138000024010258DF8035069463046FFF738FBC0
:101390000121082000F046F86802ADF800008DF841
:1013A00002408DF8035069463046FFF729FB0121C2
:1013B000082000F037F8E802ADF800008DF8024090
:1013C0008DF8035069463046FFF71AFB01210820CB
:1013D00000F028F8A802ADF8000004208DF8030002
:1013E00069463046FFF70CFB0121082000F01AF88F
:1013F0006801ADF800008DF802408DF80350694691
:101400003046FFF7FDFAF8BD000C0140044A002900
:10141000D16901D0014300E08143D16170470000F0
:1014200000100240044A0029916901D0014300E004
:10143000814391617047000000100240014908603B
:10144000704700004004424230B51F494A6812F01C
:101450000C031E4A03D0042B01D0082B21D00260BC
:101460004A680F231A4C03EA1212A35C0268DA409E
:1014700042604B68072505EA1323E35C22FA03F375
:1014800083604B6805EAD323E35CDA40C2604968B5
:10149000032303EA9131231F595CB2FBF1F101618F
:1014A00030BD4A684B6802F470124FF0020413F426
:1014B000803F04EB924202D04B689B0301D5054B61
:1014C00000E0024B5A43CAE70010024000127A00C3
:1014D0008000002000093D00024600205309094910
:1014E000012B0BD0022B0BD0D1F8241002F01F02DD
:1014F000012393400B4200D0012070470968F5E7B3
:10150000096AF3E7001002400649002281F8202012
:1015100081F82020012802D0042802D1052081F87A
:101520002000704700100240014908607047000029
:101530003C04424202490A6A02430A6270470000C0
:101540000010024002490A8882430A807047000066
:10155000042800400248018841F0100101807047D2
:10156000042800400248018821F0100101807047E2
:10157000042800402DE9F043314800883049091D16
:101580000988304F01EB0046B6FBF7F32E48841C68
:10159000018899422CD0038040F2B2754FF4B7799C
:1015A0004FF4B6780BE0A8B2FFF772FB20B14B45C1
:1015B00007D3A3F5B77301E0A3F26D136D1C434588
:1015C000F1D825800025DFF884800BE02088FFF724
:1015D0005FFB08B1012D2ED018F80500984203D802
:1015E0001B1A6D1C1C2BF1D26D1CA5705B1CE370CB
:1015F000B6FBF7F007FB10604FF46161B0FBF1F24E
:101600006271B0FBF1F201FB12033C22B3FBF2F377
:10161000A371B0FBF1F301FB1300B0FBF2F102FB8D
:101620001100E071E278A178208800F021F82071A3
:101630000020BDE8F0831D2BD6D31D3BD1E7000071
:101640001828004080510100340000208068000804
:1016500006490988C2B21140044A121F1288024288
:1016600002D009B1012070470020704704280040D3
:1016700030B56424B0FBF4F3B0FBF4F5DBB204FB4B
:101680001500132B01D96430C0B200EB900407237E
:10169000B4FBF3F503FB1544084D22440D448007C9
:1016A00015F8015C2A4492B203D1032901D2521EDB
:1016B00092B2B2FBF3F003FB102030BD7468000857
:1016C00010B50120FFF7C4FF08B1FFF753FF052055
:1016D000FFF738FFBDE8104000F0FEB8044A0029CB
:1016E000118801D0014300E0814311807047000060
:1016F000002800407CB5002401214FF0C050FFF7C6
:1017000085FE0120FFF7DAFC0420FFF737F946F2E7
:101710006665A84240D0FFF727F90120FFF7F4FEE5
:1017200004E0641CA4B20A2001F042FB4120FFF750
:10173000D3FE18B1C82C04D301207CBDC82CF0D333
:10174000FAE74FF48070FFF7F5FE0120FFF7ECFE9B
:1017500000F0C2F800F0C8F801210846FFF7BEFF0C
:1017600000F0BAF8FFF7F6FE47F6FF7000F0A4F8B5
:1017700000F0B2F832213520CDE900010023192212
:10178000052140F2E77000F021F8FFF7EBFE294653
:101790000420FFF7FBF807E000F0A6F80121084657
:1017A000FFF79CFF00F098F803208DF80000002060
:1017B0008DF801008DF8020001208DF803006846C5
:1017C000FFF720FBFFF7D6FE00207CBD2DE9F05F80
:1017D0009A4605460023A0F2B270DDF828B0914683
:1017E0008846822802D30120BDE8F09F40F2B274FF
:1017F000254E264F08E02046FFF74AFA08B1334449
:1018000000E03B44641CA4B2AC42F4D3A8F1010054
:10181000C6B200241E4FDFF87C800EE0385D40F237
:10182000A321484303EBC0132846FFF731FA10B158
:10183000012C00D14344641CA4B2B442EED340F264
:10184000A32109FB01F0134903EBC01049420844EE
:10185000CAEB4A12C2EB0A2100EB0110CBEB0B11D1
:1018600000EB81000B99441801214FF0C050FFF7A5
:10187000CDFD0120FFF722FC204600F00DF800F01E
:101880002BF80020B0E700000085E2018033E10181
:10189000806800088051010000B50246FFF75AFE3B
:1018A0000449100C0880081D02805DF804EBFFF766
:1018B00059BE00001828004000B50246FFF74AFE56
:1018C0000449C2F303400880081D02805DF804EB60
:1018D000FFF748BE08280040024801888906FCD569
:1018E00070470000042800400448018821F00801E6
:1018F000018001880907FCD57047000004280040DA
:1019000070B57E2101EA40000A4E40F080044FF499
:10191000807529463046FFF7F8F8204600F0E2F8D7
:1019200000F0B4F8044629463046FFF7F0F82046A8
:1019300070BD0000000C01401CB50F495220FFF79C
:1019400091FC262815D10C480830FFF7CAFB262841
:101950000FD109480830C2788178CDE90012437868
:10196000027806A10A4800F043FD094909A000F0E9
:101970002FFD07481CBD00005300002025303258C1
:101980003A253032583A253032583A25303258000C
:101990007C06002025730D0A0000000070B50D467E
:1019A000064688B001210420FFF73CFD01210820F4
:1019B000FFF738FD01210846FFF728FD012102202D
:1019C000FFF724FD01210846FFF72CFD0324ADF8A5
:1019D0001C408DF81E4018208DF81F0007A92848CC
:1019E000FFF70EF8ADF81C4007A92648FFF708F8E6
:1019F000ADF810500024ADF814604FF08045ADF8FC
:101A00001240ADF8164004A9284600F055FA1E4EC3
:101A100004A9304600F050FA7020ADF80000012013
:101A2000ADF80200ADF80640ADF80840694628461A
:101A300000F02CF96946284600F06EF969463046F8
:101A400000F0B4F96946304600F0F4F90821284660
:101A500000F05CF90821284600F09EF90821304684
:101A600000F0E2F90821304600F016FA012128467C
:101A700000F002F90121304600F0FEF808B070BD18
:101A800000080140000C0140000400402DE9F04135
:101A9000134E00244FF480484FF400576806050E9B
:101AA00039463046FFF731F8C82001F08FF941463A
:101AB0003046FFF723F8012801D145F00105C82081
:101AC00001F084F939463046FFF721F8C82001F0CB
:101AD0007DF9641CE4B2082CE0D32846BDE8F0810F
:101AE000000C01402DE9F041134F002405464FF44E
:101AF00000487E1428064146384602D5FFF707F80D
:101B000001E0FFF702F8C82001F060F931463846DD
:101B1000FEF7FBFFC82001F059F931463846FEF7C1
:101B2000F6FFC82001F052F96806641C050EE4B205
:101B3000082CDFD3BDE8F081000C014070B50C46E5
:101B40000546FFF7DDFE40EA04012846BDE8704087
:101B500000F0B6BB0CB50021264801910091026847
:101B600042F4803202604FF4A063026802F4003253
:101B70000092019A521C0192009A12B9019A9A425B
:101B8000F3D10268920333D5012100911A490A6802
:101B900042F010020A600A6822F003020A600A6832
:101BA00042F002020A604168416041684160416858
:101BB00041F480614160416821F47C1141604168D9
:101BC00041F4E8114160016841F0807101600168F1
:101BD0008901FCD5416821F003014160416841F071
:101BE000020141604168C1F381010229FAD10CBDB3
:101BF00000910CBD00100240002002404FF0E02197
:101C00000428086903D020F004000861704740F000
:101C10000400FAE710B504F0B9FB012803D0BDE8D1
:101C2000104004F091B810BD0F4810B5016841F0A4
:101C30000101016041680D4A1140416001680C4A90
:101C400011400160016821F480210160416821F4A4
:101C5000FE0141604FF41F018160FFF77BFF0549E2
:101C60004FF00060086010BD001002400000FFF857
:101C7000FFFFF6FE08ED00E00029018802D041F0E8
:101C8000010101E021F001010180704730B5028CB3
:101C900022F001020284028C8388048B22F002026B
:101CA00024F073050C882C430D8915434A882A4378
:101CB000114DA8420BD0114DA84208D0104DA8429A
:101CC00005D0104DA84202D00F4DA8420DD122F0F0
:101CD00008054A8923F440732A4322F004058A88C0
:101CE0002A438D891D43CB892B4383800483C98874
:101CF0008186028430BD0000002C01400034014088
:101D0000004001400044014000480140028B22F0A5
:101D100008020A430283704770B5028C22F0100259
:101D20000284028C8488038B0D8823F4E6464FF6E8
:101D3000FF7303EA052535430E8922F0200203EAEA
:101D4000061616434A8803EA02123243104EB04286
:101D500002D0104EB04215D122F080064A8924F4F8
:101D6000406403EA0212324322F040068A8803EA02
:101D7000021232438E8903EA86062643CC8903EA9F
:101D80008404344384800583C9880187028470BD3C
:101D9000002C014000340140028B4FF6FF7322F407
:101DA000006203EA012111430183704770B5028C80
:101DB00022F480720284028C8488838B0D8823F045
:101DC00073031D4322F400730E894FF6FF7202EA7B
:101DD00006261E434B8802EA03233343104EB042CB
:101DE00002D0104EB04215D123F400664B8924F482
:101DF000405402EA0323334323F480668B8802EACB
:101E0000032333438E8902EA06162643CC8902EA6D
:101E10000414344384808583C9888187038470BD1A
:101E2000002C014000340140828B22F008020A435A
:101E30008283704770B5028C22F480520284048C35
:101E40008288838B0D8823F4E6464FF6FF7303EAFE
:101E50000525354324F400560C8903EA0434344341
:101E60004E8803EA06362643094CA04202D0094CAC
:101E7000A04205D122F480448A8903EA82122243D7
:101E800082808583C988A0F84010068470BD000058
:101E9000002C014000340140828B4FF6FF7322F486
:101EA000006203EA012111438183704781867047F4
:101EB000018770478187704730B502881B4B1C4CE7
:101EC00098420DD0A0420BD0B0F1804F08D0194DF0
:101ED000A84205D0184DA84202D0184DA84203D1FF
:101EE00022F070054A882A43154DA84206D0154DA8
:101EF000A84203D022F44075CA882A4302808A8807
:101F000082850A88028598420AD0A04208D00E4AEB
:101F1000904205D00D4A904202D00D4A904201D124
:101F2000097A01860121818230BD0000002C014028
:101F3000003401400004004000080040000C004054
:101F400000100040001400400040014000440140E7
:101F50000048014010B5094C40F22551204600F0E0
:101F6000FEF8012809D1204600F086F9044A51689C
:101F7000044B0B44491C5160187010BD00380140DF
:101F8000080000202005002070B5044686B04FF4FC
:101F9000A060FEF769FF01210420FFF743FA012149
:101FA0008803FFF73FFA01210846FFF73BFA4FF499
:101FB0000070ADF8100001258DF8125018201D4E4C
:101FC0008DF8130004A93046FEF71AFDA802ADF8FB
:101FD000100004208DF8130004A93046FEF710FD10
:101FE00000940024ADF808400C20134EADF80440D6
:101FF000ADF80A00ADF80640ADF80C406946304631
:1020000000F0E4F825208DF814008DF815408DF8C7
:1020100016408DF8175005A8FEF7F4FE012240F295
:102020002551304600F0BAF80121304600F086F81C
:1020300006B070BD000801400038014070B51F4C6B
:1020400040F225552946204600F089F8002834D072
:10205000204600F011F91A4AC1B20020D388B3F526
:10206000806F00D9D080174BD6889955761CB6B2B0
:102070003344D68013F8046C622E0CD113F8036C31
:10208000792E08D113F8023C742B04D1652902D1B2
:1020900001211170D0805188FF2900D95080074854
:1020A000001D0188084B50881954401C5080294657
:1020B0002046BDE8704000F03BB870BD00440040D1
:1020C0000A010020F8350020F839002070B5154CC1
:1020D00040F225552946204600F041F8002820D03E
:1020E000204600F0C9F8104AC3B200215088B0F56C
:1020F000806F00D951800D4E50883354401C80B2FF
:102100005080304410F8020C4F2804D14B2B02D1E0
:1021100001201070518029462046BDE8704000F033
:1021200007B870BD004800400800002020010020D2
:102130000A0A01219140C943018070470029818921
:1021400002D041F4005101E021F400518181704737
:102150000246002012880A4200D00120704730B5A4
:1021600001F01F0201240025C1F3421304FA02F218
:10217000012B0FD0022B0FD0838A4FEA1121008848
:10218000134204FA01F400EA040001D000B1012571
:10219000284630BD8389F0E7038AEEE710B5C1F326
:1021A000421301F01F040121A140012B07D0022B93
:1021B00007D01430002A026805D00A4304E00C302E
:1021C000F8E71030F6E78A43026010BD30B50446E8
:1021D000008A85B00D464CF6FF710840E98801433E
:1021E0002182A1894EF6F3100140A8882A89104364
:1021F0006A890A431043A081A08A4FF6FF41084034
:10220000A9890143A1826846FFF71EF91948844253
:1022100001D1039800E00298A189090400EBC001F4
:1022200001EB0010296801D5490000E08900B0FBEE
:10223000F1F06422B0FBF2F109010B096FF018050F
:102240006B4300EB8300A3891D044FF0320306D5D6
:1022500003EBC000B0FBF2F000F0070005E003EB79
:102260000010B0FBF2F000F00F000843208105B031
:1022700030BD0000003801408088C0F3080070477E
:10228000C1F3080181807047FEE700002DE9F041AD
:1022900016460D46074600240DE000BF15F8011B49
:1022A0003846FFF7EDFF40213846FFF751FF002881
:1022B000F9D0641CA4B2B442F0D3BDE8F0810000B0
:1022C0002DE9F0410E467E2101EA4004094F4FF40A
:1022D000807529463846FEF718FC2046FFF702FCB9
:1022E0003046FFF7FFFB29463846BDE8F041FEF7D0
:1022F0000EBC0000000C01402DE9F0470746002409
:10230000FEF73AFC1A4D4FF400660022314628468B
:10231000FEF7FFFB4FF48068002241462846FEF797
:10232000F8FB052000F052FDB1464646C4F1070017
:1023300027FA00F0C00701D0012200E00022494640
:102340002846FEF7E6FB052000F040FD012231465D
:102350002846FEF7DEFB052000F038FD002231465E
:102360002846FEF7D6FB641C082CDFDBBDE8F087AF
:10237000000C014010B50446FEF714FC7820FFF76E
:10238000BBFFFEF75FFC0020FFF7B6FFFEF75AFC2D
:102390002046FFF7B1FFFEF755FCBDE81040FEF701
:1023A00029BC10B50446FEF7FDFB7820FFF7A4FF1B
:1023B000FEF748FC4020FFF79FFFFEF743FC204656
:1023C000FFF79AFFFEF73EFCBDE81040FEF712BC97
:1023D0000FB4054B10B503A9044A029800F0EEF8BB
:1023E00010BC5DF814FB0000192F00081401002038
:1023F0000FB4084B10B504A902AA039800F0DEF848
:10240000044602A9002000F070FC204610BC5DF8D4
:1024100014FB0000EB2C000802E008C8121F08C1E2
:10242000002AFAD170477047002001E001C1121F55
:10243000002AFBD1704700002DE9FF5F82B0002128
:10244000DDE90430020DDDF840B0034318D044F656
:102450001050A2F2FF3242431514119801281FD0E8
:10246000A5EB0B00401C5FEA000A4FF000064E4F40
:10247000DFF83891B046504615D5CAF1000413E094
:10248000119801244AA3012801D16FEA0B01029897
:10249000119AC0E90031C0E9024206B0BDE8F09FE0
:1024A000CBF10000DFE704460021404A491842EB27
:1024B0000450CDE9001012E0E00707D032463B4659
:1024C00040464946FDF7B3FF8046894632463B46C3
:1024D00010461946FDF7ABFF06460F466410002C68
:1024E000EAD1DDE90401DDE90023BAF1000F06DAE3
:1024F000FDF79DFF42464B46FDF799FF05E0FEF7CD
:1025000008F842464B46FEF704F804460E46002201
:10251000284BFEF785F803D84FF0FF30014607E05F
:102520000022254B20463146FDF7DAFEFEF760F823
:10253000102409E0002C0ADB0A220023FDF79FFE8D
:10254000039B30321A55641E50EA0102F2D1641C1A
:10255000039AC4F111031444119A012A03D00122F1
:1025600008430DD10AE0084304D000204FF0110BBE
:10257000119072E7A3EB0B056D1E0DE05B4504DDCA
:102580004FF0000205F1010504E003DA4FF000020C
:10259000A5F10105002AECD002981199C0E9023199
:1025A000C0E9004579E70000000014400000F03F5A
:1025B000300000000000F0430000E03F2DE9FF4F35
:1025C00095B09B468946064600250FE2252877D11F
:1025D00000242746F84A0121059400E0044316F838
:1025E000013F203B01FA03F01042F7D130782A284E
:1025F00011D06FF02F033078A0F13002092A16D8DD
:10260000059A44F0020402EB820203EB42021044FA
:10261000761C0590EFE759F8042B0592002A03DA9F
:10262000504244F40054059044F00204761C307883
:102630002E2816D116F8010F44F004042A280DD0D4
:102640006FF02F023078A0F13003092B09D807EB87
:10265000870302EB4303C718761CF3E759F8047BA2
:10266000761C30786C280FD006DC4C2817D06828F0
:102670000DD06A2814D104E0742810D07A280FD124
:102680000DE044F400140AE044F4801401E044F442
:1026900040147278824202D104F58014761C761CB4
:1026A000307866280BD013DC582877D009DC002856
:1026B00075D04528F6D04628F4D047281AD19DE198
:1026C00018E0632835D0642879D0652812D195E1C7
:1026D000702873D008DC6728F1D069286FD06E2885
:1026E0000DD06F2806D1B5E073282CD0752875D091
:1026F000782874D05A46179990476D1C75E1C4F339
:102700000250022809D003280DD0D9F8001004285F
:102710000DD00D6009F1040967E1D9F80010EA173E
:10272000C1E90052F6E7D9F800100D80F2E70D700C
:10273000F0E719F8041B8DF8001000208DF8010057
:10274000EA46012003E059F804AB4FF0FF3061077F
:102750004FF0000102D40DE008F101018846B942B2
:102760000FDA8045F8DB1AF808100029F4D108E0E8
:1027700008F1010188468142FADB1AF808100029A5
:10278000F6D105985B46A0EB080721463846179A14
:1027900000F094FA284400EB080507E04DE029E139
:1027A0000DE01AF8010B5A4617999047B8F1010845
:1027B000F7D25B4621463846179A13E142E00A22D7
:1027C0000092C4F302524FF0000A022A08D059F8CE
:1027D00004CB032A4FEAEC710AD00DE029E02AE08D
:1027E00009F1070121F00702F2E802C1914609E070
:1027F0000FFA8CFC4FEAEC71042A03D14FFA8CFCDF
:102800004FEAEC71002907DA0A460021DCF1000CDE
:1028100061EB02012D2202E0220504D52B228DF866
:102820000420012203E0E20701D02022F7E79046CE
:1028300059E00A2102E010220DE010214FF0000AB9
:1028400000910BE010224FF0000A44F00404082726
:10285000009203E008224FF0000A0092C4F30252F3
:10286000022A05D059F804CB0021032A08D009E038
:1028700009F1070121F00702F2E802C1914605E0E3
:102880001FFA8CFC042A01D10CF0FF0C4FF0000859
:10289000220728D5702806D0009B83F0100353EA46
:1028A0000A0305D00EE040228DF80420012208E042
:1028B0005CEA010206D030228DF804208DF8050074
:1028C00002229046009B83F0080353EA0A030AD1D0
:1028D0005CEA010201D1620705D530228DF804209F
:1028E0004FF001087F1E582804D034A003900EA892
:1028F00002900DE036A0F9E753466046009AFDF7D6
:10290000BEFC84460398825C0298401E02900270CE
:102910005CEA0100F0D1029806A9081A00F1200A29
:10292000600702D524F4803400E00127574502DD1A
:10293000A7EB0A0000E0002000EB0A0100900598D8
:102940004144401A0590E00306D45B462146179A9D
:10295000059800F0B3F90544002706E001A85A469F
:10296000C05D179990476D1C7F1C4745F6DBE0035F
:102970000CD55B462146179A059800F09FF905444F
:1029800004E030205A46179990476D1C0099481E64
:1029900000900029F5DC08E0029802995A46007878
:1029A000491C0291179990476D1CBAF10001AAF1D8
:1029B000010AF1DC65E10000092801003031323301
:1029C000343536373839616263646566000000006B
:1029D0003031323334353637383941424344454655
:1029E0000000000000F058F90544761C30780028FB
:1029F0007FF4ECAD19B02846BDE8F08F620700D433
:102A0000062709F1070222F0070CFCE80223E14641
:102A100003F000485FEA080C02D00FF2702C0DE0C2
:102A20005FEA045C02D50FF2682C07E05FEAC47C21
:102A300002D00FF2602C01E0AFF2700C4FF0FF38C3
:102A400023F00043CDF850C065280CD006DC4528A3
:102A500009D046281DD047283DD13DE0662818D032
:102A600067287ED138E00021112F01DB112000E022
:102A7000781CCDE9000106A90EA8FFF7DDFCDDE911
:102A80000F010E9A03910021009207F1010A0491AF
:102A90004DE04FF000400097CDE9011006A90EA8C7
:102AA000FFF7CAFCDDE90F0203920E9B1199002289
:102AB000DDF80CA00093049211B9791C00EB010A17
:102AC000B7EB0A0004D4C0F1FF3007F1010A04900B
:102AD000AAEB0700019044E0012F00DA0127002152
:102AE000112F01DD112000E03846CDE9000106A9D3
:102AF0000EA8FFF7A1FCDDE90F010E9A039100215A
:102B000004910092BA4621070CD40399514500DA8A
:102B10008A46BAF1010F05DD009AAAF10101515C64
:102B2000302908D0B84202DA10F1040F06DA012188
:102B3000CDE9011015E0AAF10101E9E7002805DC63
:102B4000049901440491AAEB000102E0411C5145A3
:102B500000DD8A460499401A401C01904FF0004065
:102B60000290200704D40198504501DBCDF8048081
:102B700000208DF84F0002980DF14F07B0F1004F83
:102B800025D02B200E9002984FF0020800280CDA76
:102B9000404202902D200E9007E00A210298FDF796
:102BA00058FB3031029007F8011DB8F10001A8F17F
:102BB0000108F2DC02980028EFD1791E0E98087007
:102BC000307800F0200040F0450007F8020D12A810
:102BD000C01B00F107081498007800B1012000EB39
:102BE0000A01019801EBE07105984144401A401E2A
:102BF0000590E00306D45B462146179A059800F03D
:102C00005DF805441498007818B15A461799904712
:102C10006D1CE00324D55B462146179A059800F009
:102C20004DF805441CE00498002807DBDDE90301AA
:102C3000884203DD0098405C179901E01799302025
:102C40005A469047049805F10105401C04900198EC
:102C5000401E019004D12E205A46179990476D1CB2
:102C6000BAF10001AAF1010ADDDC05E017F8010B59
:102C70005A46179990476D1CB8F10001A8F1010858
:102C8000F4DC5B462146179A0598ABE62D00000060
:102C90002B000000200000002DE9F0410446002533
:102CA0001E461746880404D405E039462020B04764
:102CB0006D1C641EF9D52846BDE8F0812DE9F04170
:102CC000044600251E469046C80301D5302700E083
:102CD0002027880404D505E041463846B0476D1CDE
:102CE000641EF9D52846BDE8F0810A68531C0B60C4
:102CF0001070704738B501210820FEF793FB1020B3
:102D00008DF803000402ADF800400320054D8DF856
:102D1000020069462846FDF773FE21462846FDF766
:102D2000F4FE38BD000C01402DE9F04780461F46F7
:102D300016460D462420DDF8209000F0D5F9044613
:102D4000424605A1FFF754FB04F11401204681E837
:102D5000E002BDE8F08700002573000070B504466E
:102D600003F014FB01280CD0094D2868844203D3DA
:102D7000B4FBF0F002F0A2FD2868B4FBF0F100FB18
:102D800011444FF47A706043BDE8704000F01EB803
:102D90000000002030B504464FF4FA7505E02846DF
:102DA00000F006F8284600F003F8641EF7D230BDA4
:102DB00070B5054600244FF47A7603E0304600F003
:102DC00005F8641CAC42F9D370BD000070B54FF03B
:102DD000E024002265690949A36949684843A1695B
:102DE0009942FCD002D2A3EB010302E0A5EB01065D
:102DF00033441A440B468242F1D370BD00000020D8
:102E00002DE9F0478EB00E468246012401F07CFB8E
:102E1000DFF8EC806FF0030900250C2712E0306A20
:102E20006A1C38A150F825306846FFF7E1FA05EB37
:102E3000450007EB800082B26B460C21504601F042
:102E4000FBFB6D1CB069A842E9DC401C00EB4000B4
:102E50004FF6FF7707EA80022CA30C21504601F0C1
:102E6000EBFB04EB440007EA80022AA30021504652
:102E700001F0E2FB504601F0FFFB102147464046BF
:102E8000FDF73CFE40B9504601F03EFBB069641CC2
:102E9000401CA04200DA012420213846FDF72EFE16
:102EA00038B9504601F030FB641E012C01DAB469D8
:102EB000641C40213846FDF721FEC8B9504601F098
:102EC00023FB002C11DDB069A0420EDB316A09EB57
:102ED000840009588869002803DD5046FFF790FFF9
:102EE00006E0CA695046904702E06D1CAC4203D030
:102EF0000A2002F0E3FC8FE70EB0BDE8F087000087
:102F00000008014025642E25730000004261636BB8
:102F1000000000002D3E000070B5074D0446C1B210
:102F20002846FFF7ADF980212846FFF711F9002860
:102F3000F9D0204670BD00000038014000224C212D
:102F400002F0B8B900224D2102F0B4B901684A7B01
:102F50002D2102F0AFB910B5044601224C2102F038
:102F6000A9F92046BDE81040FFF7F0BF01224D212E
:102F700002F0A0B910B5044611B1FFF7F7FF01E068
:102F8000FFF7E0FF2046FFF7E1FF2046FFF7E3FFF2
:102F90002046BDE81040FFF7D1BF70B50C4605468E
:102FA00001F08001FFF7E6FF04F040012846FFF73B
:102FB000E1FF04F020012846FFF7DCFF04F01001D8
:102FC0002846FFF7D7FF04F008012846FFF7D2FF95
:102FD00004F004012846FFF7CDFF04F00201284663
:102FE000FFF7C8FF04F001012846FFF7C3FF28469A
:102FF000FFF7BCFF2846FFF7A9FF2846FFF7ABFF06
:103000002846FFF7B3FF2846FFF7A0FF2846BDE894
:103010007040FFF793BF00007FB500240294039433
:10302000FDF7CAFCFEF766FB4FF4E1352846FEF7D4
:10303000ABFF284602F05EF9FDF73EFFFDF770FD9D
:103040001F4801F047FAFFF755FEFDF735FEFDF783
:1030500091FEFDF765FDFDF7A9FBFEF76FF941F65F
:103060001F41C720FEF79AFC01F0AEF901F0D4F938
:1030700001F0EEF901F008FA0121114801F015FB09
:1030800010490F4801F001FB02A8CDE900400023E0
:103090004FF4C0620CA10F4803F04CF9044603A999
:1030A0000120CDE90001002380220BA10D4803F08F
:1030B00041F9012C01D102F00BFD04B0002070BDDC
:1030C000A0050020A4700008765461736B436F6400
:1030D0006500000079560008765461736B436F6495
:1030E0006532000015570008F0B50B30154D20F083
:1030F00007010024144A0FE003688B420BD38B4274
:1031000005D95E1A43184768C3E9006700E04368C1
:10311000136002C004E0021D10680028ECD12046B4
:10312000002802D1286808B10020F0BD064A0748EF
:103130001060074A121A22F00702C0E90024012099
:103140002860D7E71C01002018010020FC3A00206D
:10315000F83C00202DE9F0410746FEF7EDFB3E4C20
:103160003EA12060FDF767F83F4E404D08BB384652
:1031700001F0CAF93EA310220821384601F05CFA9A
:10318000384601F079FA20213046FDF7B7FC28B91E
:103190004121384602F066FD37A068604021304684
:1031A000FDF7ACFC28B94221384602F05BFD33A0A4
:1031B000686033A12068FDF73EF808BB384601F08F
:1031C000A3F92BA310220821384601F035FA38461E
:1031D00001F052FA20213046FDF790FC28B9412138
:1031E000384602F03FFD24A0A86040213046FDF79C
:1031F00085FC28B94221384602F034FD1FA0A860A2
:1032000022A12068FDF717F808BB384601F07CF9C9
:1032100017A310220821384601F00EFA384601F0B3
:103220002BFA20213046FDF769FC28B941213846A8
:1032300002F018FD10A0E86040213046FDF75EFC6A
:1032400028B94221384602F00DFD0CA0E860206844
:1032500000210160BDE8F0813406002037363A468F
:10326000453A44333A333000000801401000002052
:1032700052656164204F4B00410000004200000095
:1032800043363A42373A43443A33300036363A33DB
:10329000323A44353A3330002DE9F0410746FEF723
:1032A0004BFB644D64A12860FCF7C5FF654E664C7E
:1032B00000283AD1384601F027F964A310220821EA
:1032C000384601F0B9F9384601F0D6F9782002F015
:1032D000F5FA20213046FDF711FC002825D03846AC
:1032E00001F012F95CA310220821384601F0A4F97C
:1032F00051A320220821384601F09EF959A16068A7
:10330000FCF799FF08B158A307E05AA16068FCF7E1
:1033100092FF08B158A300E05AA340220821384682
:1033200001F08AF9384601F0A7F958A12868FCF79E
:1033300082FF002839D1384601F0E6F843A3102275
:103340000821384601F078F9384601F095F97820DF
:1033500002F0B4FA40213046FDF7D0FB28B33846DE
:1033600001F0D2F83CA310220821384601F064F99C
:1033700046A320220821384601F05EF939A1A06851
:10338000FCF759FF08B138A307E03AA1A068FCF7A1
:1033900052FF08B138A300E03AA340220821384682
:1033A00001F04AF9384601F067F93BA12868FCF7BB
:1033B00042FF002839D1384601F0A6F823A3102295
:1033C0000821384601F038F9384601F055F97820DF
:1033D00002F074FA20213046FDF790FB28B33846FE
:1033E00001F092F81CA310220821384601F024F9BC
:1033F00029A320220821384601F01EF919A1E0680E
:10340000FCF719FF08B118A307E01AA1E068FCF760
:1034100012FF08B118A300E01AA340220821384681
:1034200001F00AF9384601F027F928680021016007
:10343000BDE8F0813406002037363A46453A443339
:103440003A333000000801401000002073746172AC
:1034500074207772697465007772697465204F4BC8
:103460000000000041000000417265613A20202008
:103470002020420042000000417265613A20202075
:1034800020204100657272657200000043363A42A6
:10349000373A43443A33300036363A33323A4435D9
:1034A0003A3330002DE9F04FB5B0402124A8FCF7A5
:1034B0009EFE802104A8FCF79AFE1023EFA20221B1
:1034C0001820FDF7D9FDFEF737FAEF4DEFA1286080
:1034D000FCF7B1FEDFF8C083F04CF14E4FF0010B6A
:1034E0004FF000094FF0804A05F11C0760B1EDA1D3
:1034F0002868FCF7A0FE00287ED0EDA12868FCF724
:103500009AFE002879D02AE186F80090FDF7B6FCF3
:103510001023EAA202211820FDF7AEFDFDF706FCFC
:10352000E379A2796179E0788DE80F00A3782288A9
:10353000E4A1281DFEF75CFFBE215046FEF7B6FC55
:10354000FDF79CFC1023E6A202211846FDF794FD2E
:10355000E7A17068FCF76FFE28B100BF00F028FFFC
:103560000028FBD108E0E3A17068FCF764FE01E0ED
:1035700000F046FF0028FBD1FDF780FC1023DEA2FF
:1035800002211820FDF778FDE379A2796179E078CE
:103590008DE80F00A3782288CAA13846FEF728FFDD
:1035A000D4A17068FCF747FE60B1BE215446504676
:1035B000FEF77EFC0120FFF7EDFBAF212046FEF772
:1035C00077FC10E0CAA17068FCF735FE58B1BE2147
:1035D00044464046FEF76EFC0120FFF7DBFBB421BA
:1035E0002046FEF767FC00972B1DC6A124A82A6879
:1035F000FEF7FEFEB42101E018E0B5E05046FEF70C
:1036000055FC86F800B0FDF79BF970682B1DCDE9DD
:103610000070BF4904A82A68FEF7EAFEFDF786FBA2
:103620008DE0802104A8FCF7E2FD93E086F801908C
:10363000FDF724FC1023B7A202211820FDF71CFD82
:10364000FDF780FBE379A2796179E0788DE80F00DE
:10365000A37822889BA1281DFEF7CAFEBE215046F2
:10366000FEF724FCFDF70AFC10239DA20221184658
:10367000FDF702FD9EA1B068FCF7DDFD28B100BF9B
:1036800000F096FE0028FBD108E09AA1B068FCF794
:10369000D2FD01E000F0B4FE0028FBD1FDF7EEFB07
:1036A00010239EA202211820FDF7E6FCE379A279FF
:1036B0006179E0788DE80F00A378228881A13846EF
:1036C000FEF796FE8BA1B068FCF7B5FD60B1BE2198
:1036D00054465046FEF7ECFB0120FFF75BFBAF21A1
:1036E0002046FEF7E5FB10E081A1B068FCF7A3FDE2
:1036F00058B1BE2144464046FEF7DCFB0120FFF7EF
:1037000049FBB4212046FEF7D5FB00972B1D7DA178
:1037100024A82A68FEF76CFEB4215046FEF7C6FBCB
:1037200086F801B0FDF70CF9B0682B1DCDE90070EB
:10373000774904A82A68FEF75BFEFDF703FB04A99E
:1037400079A0FEF745FE7CA104A8FDF7C5F8002886
:103750007FF467AF2968C1F80090FDF719F8FDF70D
:1037600017F835B0BDE8F08F86F80290FDF786FBBC
:10377000102373A202211820FDF77EFCFDF7EEFA5C
:10378000E379A2796179E0788DE80F00A378228847
:103790004CA1281DFEF72CFEBE215046FEF786FBED
:1037A000FDF76CFB10234EA202211846FDF764FCC6
:1037B0004FA1F068FCF73FFD28B100BF00F0F8FD15
:1037C0000028FBD108E04BA1F068FCF734FD01E0D4
:1037D00000F016FE0028FBD1FDF750FB10235AA283
:1037E00002211820FDF748FCE379A2796179E0789D
:1037F0008DE80F00A378228832A13846FEF7F8FD45
:103800003CA1F068FCF717FD60B1BE21544650465C
:10381000FEF74EFB0120FFF7BDFAAF212046FEF771
:1038200047FB10E032A1F068FCF705FD58B1BE215E
:1038300044464046FEF73EFB0120FFF7ABFAB421B9
:103840002046FEF737FB00972B1D2EA124A82A68DF
:10385000FEF7CEFDB4215046FEF728FB86F802B0F5
:10386000FDF76EF8F0682B1DCDE90070284904A81B
:103870002A68FEF7BDFDFDF771FA60E752656164E5
:10388000696E672E2E2E00003406002037363A4629
:10389000453A44333A3330000004004036000020FB
:1038A0001000002043363A42373A43443A3330005E
:1038B00036363A33323A44353A3330004361726433
:1038C0002041000025642D253032642D25303264DE
:1038D00020253032643A253032643A253032640093
:1038E0005472616E73666F726D696E672E2E2E0054
:1038F0004100000042000000415F43617264204FBC
:103900007574000025732C25732C257300000000AE
:10391000FC9400084361726420420000425F4361EE
:103920007264204F757400000D0A6275662D2D2D8E
:1039300025730D0A000000007375636365737300DF
:103940004361726420430000435F43617264204F0F
:10395000757400002DE9F041184C0F460546E668E5
:103960002068001D01F018FD38B9206890F82C106F
:1039700001208840216981432161681C07D137B14A
:103980002168BDE8F0410E48091D01F03DBD2068E9
:103990003544B5424560216805D2A06BBDE8F041D1
:1039A000091D01F019BD606B091D01F015FDA06A2C
:1039B000854200D2A562BDE8F081000090000020A1
:1039C000BC0900202DE9F041054601F029FD2D4CF0
:1039D000A068401CA06020682B4F10B1606930B314
:1039E0002BE02560A068012827D1002606EB860081
:1039F00007EB800001F0E2FC761C202EF6D3234872
:103A000001F0DCFC2148143001F0D8FC1F482830BC
:103A100001F0D4FC1D483C3001F0D0FC1B48503074
:103A200001F0CCFC194860631430A06305E0206805
:103A3000E96AC06A884200D82560606A401C6062FA
:103A40006864E96A0120226988401043206101EB23
:103A5000810007EB8000291D01F0D6FC01F014FD68
:103A6000606900280CD02068E96AC06A884207D2E1
:103A700007494FF080500860BFF34F8FBFF36F8F3F
:103A8000BDE8F08190000020EC0600206C090020C9
:103A900004ED00E010B501F0C3FC0E4C2068A0B9A5
:103AA0000D4801F08BFC0C48143001F087FC0A48EB
:103AB000E0601430206100221021052002F05AF944
:103AC000206010B105A101F0A1FDBDE8104001F09A
:103AD000DBBC0000CC000020D0090020546D7251E6
:103AE0000000000070B5114E114C17E002F03EF8D6
:103AF0003068B8B102F084FD01F092FCF068C5684E
:103B0000281D01F049FCA068401EA0606068401EAE
:103B1000606001F0B9FC284600F055F860680028A4
:103B2000E4D170BD02F06CFDF8E70000A8090020A8
:103B30009000002030B4026C0B46002A0BD0C16804
:103B40001144C1604468A14201D30168C16030BC26
:103B50001846FCF733BB30BC70472DE9F041856B4C
:103B6000174604460026026C82B1C7B1E068FCF734
:103B700025FBE168206C091AE1602268914202D2BB
:103B80006168081AE060022F16D017E02068A8B913
:103B9000606802F087FC0646002060600EE0A068C6
:103BA000FCF70CFB216CA0680844A06061688842A7
:103BB00004D32068A06001E005B16D1E6D1CA563F3
:103BC0003046BDE8F08110B50446006B01F086FC7C
:103BD0002046BDE8104001F081BC000010484FF4C1
:103BE0002051420706D0C01D0D4920F00700411AA0
:103BF000C1F520510B4A00230144C2E900030839F2
:103C0000103A21F0070111604B600B600B1AC0E9FC
:103C1000001393604FF000405360D0607047000085
:103C2000F8090020F0000020074C4FF08056074DA7
:103C3000FFF758FF20680128FAD92E60BFF34F8F95
:103C4000BFF36F8FF4E70000EC06002004ED00E006
:103C50002DE9F047DDE909840E46174682469100BA
:103C60009946089DA522206BFCF7BAFA6FF0030174
:103C7000206B01EB8701084420F00707780705D087
:103C800040F22B3219A120A0FEF7A2FB002022183F
:103C9000315C82F83410315C11B1401C1028F6D32D
:103CA000002684F84360202D00D31F25E562C4E977
:103CB0001356201D01F08DFB04F1180001F089FB63
:103CC0002461C5F120006462A061666584F85860D3
:103CD0004A465146384600F0FFFA2060B8F1000F1E
:103CE00001D0C8F80040BDE8F08700002E2E5C46E9
:103CF00072656552544F535C736F757263655C7483
:103D000061736B732E6300004572726F723A257394
:103D10002C25640D0A00000030B5114900E0114661
:103D20000A688242FBD34B685C18844203D1406826
:103D300018444860084643681C18944209D1084C4E
:103D4000103C2468A24209D052681A4442600A68B2
:103D500012680260814200D0086030BD0460F9E75B
:103D6000F000002070B5002441600B4D00619142CD
:103D700006D8D11A8269914206D2011D286907E04E
:103D80009A4203D2994201D3012403E0011DE8685D
:103D900001F022FB204670BDCC00002010B5044687
:103DA00001F03EFBA06B28B15FF0000401F06CFB5A
:103DB000204610BD0124F9E72DE9F34100980F4694
:103DC0000026846C2CB940F6CE1216A11CA0FEF77A
:103DD000FFFAA06BE16B884205D340F6CF1211A128
:103DE00017A0FEF7F5FAA06BE16B88420CD294F9AC
:103DF00045503A4669462046FFF7AFFE0646681C26
:103E000005D06D1C84F845503046BDE8FC81606AE1
:103E10000028F9D004F1240002F0A2FB0028F3D01E
:103E20000126F1E72E2E5C4672656552544F535CB5
:103E3000736F757263655C71756575652E630000DF
:103E40004572726F723A25732C25640D0A000000CA
:103E5000F8B5054614480E46C068C068C468201D01
:103E600001F09AFAE069012817D1A0692B4641199F
:103E700032462046FFF776FF78B100200346014620
:103E800000902A46204602F0ABFC30B907494FF4B7
:103E9000027201F11C00FEF79BFA616A01B0204634
:103EA000BDE8F04008470000CC0000203C67000857
:103EB00070B588B02F4E53E00498002806DADDE98B
:103EC0000601059A90470498002849DB069C606922
:103ED00010B1201D01F060FA02A800F0A9F8054613
:103EE00004980A283CD2DFE800F00505053B273896
:103EF00005053B270598A169034601442A4620464B
:103F0000FFF730FF00282BD0616A20468847E06920
:103F1000012825D1002000900598A16900234218AE
:103F20001946204602F05CFCD0B940F2213212A1C1
:103F300018A0FEF74DFA13E00598A06128B94FF4D8
:103F40004E720DA113A0FEF743FAA0692B4641194A
:103F50001A462046FFF706FF02E0204601F0BEFAAF
:103F600000231A4604A9306801F044FF0028A3D1B9
:103F700008B070BDCC0000202E2E5C4672656552E4
:103F8000544F535C736F757263655C74696D6572D1
:103F9000732E63004572726F723A25732C25640D7F
:103FA0000A000000F8B50D46064601F0DFFD684640
:103FB00000F03EF80446009810B102F021FBF8BD75
:103FC0001148ADB101690968D9B10025311B2A46F4
:103FD000006801F02FFB02F013FB0028EFD10B4922
:103FE0004FF080500860BFF34F8FBFF36F8FF8BD65
:103FF000A642EBD802F004FB21463046FFF728FF2B
:10400000F8BD0125E2E70000CC00002004ED00E04F
:104010000648416B096829B1416BC968C96849689C
:10402000816270474FF0FF31FAE7000090000020F6
:1040300070B5054602F0B8F9064E0446B0688442F1
:1040400003D200F009F8012000E00020286020469B
:10405000B46070BDCC000020F8B5184D26E0C068F3
:10406000C4680668201D01F097F9616A20468847F8
:10407000E06901281AD1A0693044B04206D9246110
:104080006060211DE86801F0A7F90FE000200346F9
:10409000014600903246204602F0A2FB30B90849A2
:1040A00040F2923201F11C00FEF792F9E8680168D3
:1040B0000029D4D12969C5E90310F8BDCC0000203E
:1040C0003C67000808484068401C04D0F42207A15F
:1040D0000DA0FEF77DF9502080F31188BFF34F8FBC
:1040E000BFF36F8FFEE70000F80000202E2E5C4625
:1040F00072656552544F535C706F727461626C6587
:104100005C706F72742E63004572726F723A257321
:104110002C25640D0A000000074CE068016841B1DD
:10412000C0680021D0F80000FFF73CFFFFF7C0FE99
:10413000F3E701210020F7E7CC0000202DE9F04152
:10414000044601F06DF994F9455004F1240610E09D
:10415000A06C20B100212046FFF72EFE04E0606A2B
:1041600048B1304602F0FCF908B101F0E1FB6D1EE8
:104170006DB2002DECDC4FF0FF3684F8456001F0A5
:1041800083F901F04DF994F9445004F1100709E066
:10419000206948B1384602F0E3F908B101F0C8FBE4
:1041A0006D1E6DB2002DF3DC84F84460BDE8F04173
:1041B00001F06AB92DE9F0410546002701F0D6FC6F
:1041C000324E306808B9FFF709FDF06805424FD15B
:1041D000002D4DD0083568070BD005F00700C0F161
:1041E00008000544680704D0BF2229A130A0FEF7CB
:1041F000EFF8002D3CD07068854239D82348103044
:1042000001460C6801E020460C466168A94202D2D2
:1042100021680029F7D13168B0468C4228D0076860
:104220002168016060680837401B10280ED96619A4
:10423000700704D0EC2216A11DA0FEF7C9F8606833
:10424000401B706030466560FFF766FD6268D8F815
:1042500004104046891AC8F80410D8F8083099426A
:1042600000D28160D8F80C0002430020C4E90002AB
:1042700002F0C6F9780705D04FF4967204A10CA09D
:10428000FEF7A6F83846BDE8F0810000E000002007
:104290002E2E5C4672656552544F535C706F72747B
:1042A00061626C655C686561705F342E630000005C
:1042B0004572726F723A25732C25640D0A00000056
:1042C0000449086818B10868026D521C0265086844
:1042D000704700009000002010B5031F4FF080745D
:1042E0001C601B1F21F001011960191F024B0B609C
:1042F000143940380A6010BDC540000870B5064644
:1043000000F002F90124144D02E03046FEF7C4FF2C
:1043100010212846FCF7F2FB88B120212846FCF743
:10432000EDFB40212846FCF7E9FB68B1304600F080
:10433000A3F90A2001F0C2FA002CE9D1E5E73046E2
:10434000BDE8704000F0E0B80024304600F094F979
:104350000A2001F0B3FAD8E70008014070B506461C
:1043600000F0D2F80124114D02E03046FFF79AF830
:1043700010212846FCF7C2FB28B140212846FCF753
:10438000BDFB28B105E03046BDE8704000F0BCB888
:10439000002420212846FCF7B1FB304600F06CF9E0
:1043A0000A2001F08BFA002CE2D1DEE70008014080
:1043B00010B54FF480710348FCF7A0FB002800D033
:1043C000012010BD0008014038B501210420FDF78F
:1043D00029F84FF48074ADF8004003208DF80200F6
:1043E0002820064D8DF8030069462846FCF708FB97
:1043F00021462846FCF789FB38BD00000008014033
:1044000010B54FF400610348FCF778FB002800D09A
:10441000012010BD0008014038B501210420FDF73E
:1044200001F84FF40064ADF8004003208DF802005D
:104430002820064D8DF8030069462846FCF7E0FA6F
:1044400021462846FCF761FB38BD0000000801400A
:1044500038B501210420FCF7E5FF4FF48054ADF896
:10446000004003208DF802002820064D8DF803003F
:1044700069462846FCF7C4FA21462846FCF745FB66
:1044800038BD00000008014038B501210420FCF7C8
:10449000C9FF01210846FCF7C5FF01210B48FCF7C5
:1044A00001FB4FF40044ADF8004003208DF80200FA
:1044B0000420074D8DF8030069462846FCF7A0FA52
:1044C00021462846FCF721FB38BD000000023000E1
:1044D0000008014010B50446084B094A094900F09C
:1044E0001DF9204600F069FC0021204600F075FC13
:1044F0002046BDE8104000F007B800002152000837
:104500007D4E0008CC93000801680A7C90F83810B2
:10451000406B5143C900FBF76ABE2DE9F0410446E8
:1045200090F870001F4615460E4630B1012809D09C
:1045300002280CD0032815D10FE0E16D20468847F2
:10454000284408E0E16D20468847301A09E0E16D13
:1045500020468847281A85B204E0E16D2046884746
:10456000304486B22846A4F86460A4F86600394650
:104570000025204600F0C8FA010003D0204600F0D4
:10458000F3F985B22846BDE8F08100003FB581B05F
:10459000044690F88C00089900283AD0BDF8100025
:1045A000002836D0012811D9022902D0032907D0CA
:1045B0000CE0BDF80820101A401CADF8080005E01A
:1045C000BDF80C20101A401CADF80C0011F00105CC
:1045D00021D0B4F84810BDF80800814219D8B4F8C9
:1045E0004A10814215D9B4F84E30B4F84C2004A9D1
:1045F0000DF10C0000F02AF900280AD00095206B7C
:10460000BDF81030BDF80C208568BDF808102046B4
:10461000A84705B030BDB4F84C10BDF80C0081427D
:10462000F7D8B4F84E108142F3D9B4F84A30B4F850
:10463000482004A902A8DDE730B4024C446030BC35
:1046400000F031B9414E000870B50D461E460446D3
:10465000B0F84E10B0F84C00049B00F0B2FA0028FD
:1046600009D0B4F84A10B4F8480033462A46BDE8E9
:10467000704000F0A6BA70BD10B5044600F031FBE2
:104680002046BDE8104000F0A0BB10B50446806D88
:10469000884209D004F17400A16500F0EDFA2046CB
:1046A000BDE8104000F056B810BD80F86D1070479E
:1046B0000149C165704700001D4900080021A0F8AC
:1046C0005010A0F854104FF6FF71A0F85210A0F847
:1046D0005610016B4968084770B5044600250498D8
:1046E000A565E362616384F8382084F8395084F862
:1046F0006D5084F89150012184F8921084F8931041
:1047000020630168204688472046FFF7D7FF2046F0
:10471000FFF7CEFF84F8705070BD00007CB50C46EA
:10472000009313460546084A084900F05EFB01A8BD
:1047300000F09CFA0146064B00949DF804202846A0
:10474000FFF7CAFF7CBD0000F14F000819510008B7
:10475000DD4B000810B5816D00291AD090F9813029
:1047600080F88E3090F9822080F88F2090F88D109C
:1047700000290ED001290DD090F97E4090F98010CB
:104780000C449C4201DD80F88E408A4201DD80F8B5
:104790008F1010BD90F983108B4201DA80F88E10D3
:1047A00090F98410F1E72BB1012B05D0022B06D034
:1047B000104402E0084400E0801A80B27047401ABA
:1047C000FBE72BB1012B05D0022B06D0401A02E0EB
:1047D000104400E0084480B27047801AFBE738B507
:1047E0000446B0F856000090B4F85230B4F85420A3
:1047F000B4F850102046FFF727FF18B3012084F8C3
:104800008C00B4F84810B4F85000814201D2A4F8EA
:104810004800B4F84A10B4F85200814201D9A4F813
:104820004A00B4F84C10B4F85400814201D2A4F804
:104830004C00B4F84E10B4F85600814201D9A4F8E7
:104840004E0038BD002084F88C0038BD30B5048897
:104850000D882544ADB2AC4205D99C4202D25D1E02
:10486000ADB200E014469C4201D2954201D800202E
:1048700030BD944200D214469D4200D91D460480AA
:10488000281B0880012030BD38B5C58F049C0094DA
:10489000521BC46A92B2A04738BD38B5049C00943C
:1048A000FFF7F2FF38BD2DE9F0471C4691468846D8
:1048B000064600F01BFD00254FF6FF777268217851
:1048C000304690470346B84225D0641CA3F57F408C
:1048D000FE38F3D04A4641463046FFF71EFE96F8B2
:1048E000701031B1012907D0022908D003290FD156
:1048F0000AE008EB000104E009EB000106E0A8EB88
:1049000000011FFA81F803E0A9EB00011FFA81F909
:10491000284485B2D2E72846BDE8F08700207047DA
:1049200010B50C4600F006F80122641EA240801A61
:1049300040B210BD30B50568047B2A78E2406318A8
:10494000DBB2082B09D36D1C05602D78C4F1080477
:10495000A5401543083BEAB2DBB201248C40641E3B
:1049600014400373204630BD2DE9F843054600F19D
:10497000600400F00CF915F96B6F2046E97BFFF736
:10498000CFFF8146297C2046FFF7CAFF0746697C96
:1049900020466B3DFFF7C4FF804694F90A000028CB
:1049A00057DDF019404247B2237CA0883A46494679
:1049B000FFF7F9FEA080237C3A46E0884946FFF7DE
:1049C00000FFE080A188277C02460B4637B1012F0B
:1049D0000AD0022F40D0032F0FD146E094F90A707D
:1049E00030443B449BB207E0891B491C94F90A7090
:1049F0005B1C89B29BB2384480B200902846FFF716
:104A000023FE30B30020207284F8090095F8761058
:104A10002046FFF78FFF814695F877102046FFF775
:104A200089FF074600224946284600F027F8012260
:104A30003946284600F022F801212046FFF77AFF88
:104A40000028EFD194F90900B042DFDBA07B85F8A4
:104A500092004046BDE8F88394F90A705B1CC91BBC
:104A6000491C89B29BB2921B04E094F90A7033444A
:104A70009BB2D21B521C92B2401CBDE72DE9F74FEE
:104A800084B00D46049C94F8687094F86980603492
:104A9000A07AC01BC6B20196B54200D201954FFA6A
:104AA00088F279B2A088B4F806B0237C9246894691
:104AB000FFF779FE0290237C524649465846FFF79D
:104AC00080FE0246069808B1A17B02E0607B50B9E7
:104AD000E17B049880F89210207C0090DDE90131A0
:104AE0000498FFF753FDB54207D3A81BC5B208F1E0
:104AF0000100002700F0FF08CAE77819207284F847
:104B0000098007B0BDE8F08F70B50D460146806D95
:104B10001730FF2D10D8612D02D3B1F8881003E0B3
:104B2000412D02D3B1F886100844417819B30278B8
:104B3000AA42F9D1801C70BDB1F88A100C18264623
:104B40000021304600F019F804440221304600F0FC
:104B500014F8361DA842F3D34FF6FF72207802EA0C
:104B600000216078084306D0A84201D1E01C70BD46
:104B7000A0780444F2E7002070BD08444FF6FF72AD
:104B80000178407802EA0121084480B2704730B5CC
:104B9000054600F1600401660020207315F8781FB7
:104BA0002046FFF7C7FEA07269782046FFF7C2FED5
:104BB000E072A87EA07310B10020E07330BD012028
:104BC000FBE78A4205D2834201D89A4203D90120E9
:104BD00070478342F9D8002070470000F0B502F01A
:104BE00007060124B440002590F892E0E7B2DDF812
:104BF00014C02C46BEF1010F01D83D4600D03C4602
:104C0000076822F00702BCF1000F3F7C07FB02F7A8
:104C1000BAB2476B3A44114409D108785B1E284365
:104C200060401B0401F8010B1B0CF6D1F0BD0A78A3
:104C3000761C2A436240A3F101030A7016F00706AE
:104C40009BB206D06A06150E6206140E002BEED13A
:104C5000F0BD428F114490F89220012A03D800BF82
:104C60004FF00105F2D04FF00104EFE70821017089
:104C700000487047F831002070B505460878287064
:104C8000487868708878A870C878E87008792871C2
:104C90004879687188790C46A871E079E871207AC2
:104CA0002872607A6872A07AA872E07AE872207B33
:104CB0002873607B6873A07BA873E07BE873207C1B
:104CC000287411212046FFF758FF688213212046DF
:104CD000FFF753FFA88215212046FFF74EFFE88219
:104CE00070BD2DE9F843064690F8387090F83950B9
:104CF000006800244FF6FF7890F811903168304634
:104D00002A460B7C716B04FB03FC1FFA8CFC08EA3F
:104D1000CC0C61440091002100F040F8641C6D1C33
:104D2000E4B2EDB2BC4201D24D45E7D3BDE8F88311
:104D3000F0B590F838204FF6FF75036805EAC20118
:104D40008187197C05EAC101418790F8394005EA5D
:104D5000C401C1875E7CA718B74201D9321B92B249
:104D600005EAC20220F8401F11444180998A8180DF
:104D7000D98AC180F0BDFFF7DBBF0021A0F8481041
:104D8000B0F84410A0F84A10B0F84010A0F84C1049
:104D9000B0F84210A0F84E10FFF721BD1CB58DF8F9
:104DA00005108DF80620049C8DF804300094012233
:104DB00084686B460F21A0471CBD30B48468002373
:104DC000A44630BC1A460A21604730B484680023E8
:104DD000A44630BC1A461021604730B484680023D2
:104DE000A4460A4630BC0B2160472DE9F041154628
:104DF0000E460446069F00F009F86761A660C4E904
:104E000003532046BDE8F04100F012B8002140F8FD
:104E1000081B064A026042608260C260C1768177E8
:104E20000161FF21017780F8201070471D520008B2
:104E300030B484680023A44630BC1A460921604778
:104E4000080001D00A2801D14FF6FF70704730B436
:104E500004690023A44630BC1A461921604713B5E3
:104E60000122046901AB1721A0471CBD30B40469BD
:104E70000023A44630BC1A461821604770B5164678
:104E80000446182924D004DC142914D0172904D18D
:104E900005E019293DD020294CD0002070BD1D46C9
:104EA00006E029782046FEF778F8761EF6B26D1CEB
:104EB000002EF6D13EE001224C2100F0FBF9012248
:104EC0004D21204600F0F6F92046FEF73FF831E08C
:104ED00094F8250040B12046FEF748F82046FEF73A
:104EE00035F82046FEF737F82046FEF73FF8204613
:104EF000FEF728F82046FEF729F82046FEF71EF8B0
:104F0000012184F82510204694F82410FEF745F876
:104F100010E0FEF717F82046FEF718F82046FEF7D7
:104F20001AF82046FEF722F82046FEF70FF8002078
:104F300084F82500012070BD30B4C4680023A44665
:104F400030BC1A461921604730B4C4680023A44617
:104F50000A4630BC1621604730B4C4680023A4461A
:104F60000A4630BC1521604730B4C4681346A446D5
:104F70000A4630BC17216047F8B50C464FEA0005D9
:104F800014F8011B182924D00EDC152919D0162974
:104F900017D0172923D120788DF800006A46012107
:104FA0002846FFF7E1FF0AE0192912D0FE2916D1A1
:104FB00022788DF800202921284600F07BF9641C16
:104FC000DEE722788DF80020EE6800232846B047FF
:104FD000F5E70023EE681A462846B047D0E7F8BD4B
:104FE00030B4C4680023A44630BC1A461821604778
:104FF0002DE9F041DFF8B08014460646A1F1140215
:10500000002798F800001D46062A4AD2DFE802F081
:105010002F03161B3E4310B13046FFF718FF3046F2
:10502000FFF724FF00213046FFF719FF21463046E5
:10503000FFF715FF012088F8000029E021463046DF
:10504000FFF70DFF24E050B13046FFF700FF06E008
:105050001821304600F034F9183CE4B21835182C09
:105060002A46F5D82146304600F02AF90EE096F897
:105070002400FF2802D1782086F8240037692B46C7
:1050800022463046BC46BDE8F041604788F80070D3
:105090000120BDE8F0810028F8D03046FFF7D7FEA8
:1050A000F4E70020F5E700000401002070B50023BC
:1050B000456904461A462821A8470023E5681A4690
:1050C00014212046A84701224B21204600F0F2F887
:1050D000206829210279204600F0ECF800224B21BB
:1050E000204600F0E7F8206829210279204600F0E8
:1050F000E1F801224B21204600F0DCF8206829214C
:1051000042792046BDE8704000F0D4B80160897C47
:1051100080F822107047000070B50C46054600F07C
:1051200019F890B9092C0BD00A2C01D0002070BDC1
:105130002846FFF7BBFF06492846FFF71DFF04E09E
:1051400003492846CE31FFF7E1FF012070BD000082
:10515000FE9300082DE9F0411E46144605460B2932
:1051600008D00D290ED00E291ED00F2927D00020DF
:10517000BDE8F0811AB12849FFF7FEFE4AE0264952
:10518000491FF9E74AB124490C31FFF7F5FE2868B9
:1051900090F8130085F822003CE01F49491DFFF7F5
:1051A000EBFE2868807CF5E7FFF71AFF812128468F
:1051B000FFF7D2FE21462846FFF7C6FE27E0FFF79D
:1051C0000FFF707995F8221001EBC000C7B24021A3
:1051D0002846FFF7C1FE102040EA17112846FFF7C6
:1051E000BBFE07F00F012846FFF7AEFEB07940F096
:1051F000B0012846FFF7A8FE30793268C006010EDC
:105200002846FFF7B1FE641E14F0FF04F4D12846CF
:10521000FFF792FE0120ABE7DD9300080020704706
:1052200010B5234B4D2931D00CDC2B2918D004DCD0
:10523000292920D02A290ED114E02D291FD04C294C
:1052400009D120E0002250292ED051292CD05229FA
:105250002AD0532928D0012180F82710012010BD21
:1052600000BFFBE700204FF4A07100BF401C80B2DC
:105270008842FAD3F2E70120FDF79AFDEEE7052018
:10528000FDF7A4FDEAE74FF4806101E04FF400610F
:10529000012A05D0002AE1D11846FBF736FCDDE7EC
:1052A0001846FBF734FCD9E780F82720D6E7000042
:1052B000000C014030B444690023A44630BC604770
:1052C0002DE9F04115460E460446FFF7CFFD40217B
:1052D0002046FFF7C4FD27692B463246172120469A
:1052E000B8472046BDE8F041FFF7B1BD002180F886
:1052F0002610704770B50546012186B04804FCF7BA
:1053000085F801210420FCF78DF818208DF8130092
:105310000424ADF8104003201D4E8DF8120004A99E
:105320003046FBF76DFB8DF813400820ADF81000F8
:1053300004A93046FBF764FB002400950C20ADF86F
:105340000A00144DADF80640ADF80C40ADF8084029
:10535000ADF8044069462846FCF738FF012128468D
:10536000FCF7ECFE012240F225512846FCF716FF1F
:1053700026208DF8140001208DF817008DF81540B7
:105380008DF8164005A8FBF73DFD06B070BD000086
:105390000008014000440040D0E9013201699A60F0
:1053A000D0E901235A604A68824201D182684A608A
:1053B000002202610868401E0860704700F1080181
:1053C0004FF0FF32C0E90112C160016100210160AC
:1053D000704700210161704730B50B685A1C02D03C
:1053E00000F1080202E0026904E0224654682568E0
:1053F0009D42FAD953684B6099608A605160086198
:105400000168491C016030BD42684A6093688B6046
:1054100093685960916008610168491C0160704798
:10542000502080F31188BFF34F8FBFF36F8F09496E
:105430004868401C486001280AD10748006810F0FD
:10544000FF0F05D04FF4BD7204A10BA0FCF7C0BF45
:1054500070470000F800002004ED00E02E2E5C46AE
:1054600072656552544F535C706F727461626C6503
:105470005C706F72742E63004572726F723A25739E
:105480002C25640D0A00000010B5084C606828B98E
:1054900040F2811206A10DA0FCF79AFF6068401E41
:1054A000606001D180F3118810BD0000F800002079
:1054B0002E2E5C4672656552544F535C706F727449
:1054C00061626C655C706F72742E63004572726FFE
:1054D000723A25732C25640D0A00000070B500286F
:1054E0002AD0164DA0F108046068E968084205D189
:1054F0004FF4A07212A11AA0FCF76AFF206828B12D
:1055000040F241120EA116A0FCF762FF6168E86844
:10551000014211D02268002A0ED18143616000F05F
:1055200025FB60686968084468602046FEF7F4FB64
:10553000BDE8704001F064B870BD0000E0000020DC
:105540002E2E5C4672656552544F535C706F7274B8
:1055500061626C655C686561705F342E6300000099
:105560004572726F723A25732C25640D0A00000093
:1055700006484FF47A710068B0FBF1F14FF0E0207B
:10558000491E416107210161704700002000002091
:1055900010B5FAF7FDFD104C10280CD300F1E020F7
:1055A00090F8F0032178884205D24FF42A720BA1BB
:1055B00011A0FCF70DFF14480068A16800F4E0603A
:1055C000884207D9BDE810404FF42E7203A10AA00B
:1055D000FCF7FEBE10BD0000F80000202E2E5C4639
:1055E00072656552544F535C706F727461626C6582
:1055F0005C706F72742E63004572726F723A25731D
:105600002C25640D0A0000000CED00E010B5084BDD
:10561000002200BF53F832401CB1521C082AF9D3B3
:1056200010BD43F8321003EBC201486010BD00000A
:10563000AC06002070B515460E460446FFF7F0FE96
:1056400094F944100020491C01D184F8440094F9D5
:105650004510491C01D184F84500FFF715FFA06BE8
:1056600028B92A46314604F1240000F095F9204675
:10567000BDE87040FEF762BD1FB50024154B224601
:10568000022115A00094FDF74FFBCDE90040154B1A
:105690000022032114A0FDF747FB0290154B0022C6
:1056A0000421009414A0FDF73FFB039001A8009093
:1056B000144B0322012114A0FDF736FB04464FF4DE
:1056C000FA7521461248FDF79BFB284600F0F6F8D4
:1056D000F7E70000055C00085772697465204361B4
:1056E00072640000FD42000852656164202043613D
:1056F000726400005D430008537461727420536F3C
:1057000072740000015C0008526F6F7400000000AA
:10571000A00500202D4C4FF080452D4EDFF8B480C1
:10572000AF144FF47A79207801284AD100202070F4
:1057300029A13048FAF766FD08B1BE2105E02EA187
:105740002C48FAF75FFD20B1B4212846FCF7AEFBE8
:1057500032E030A12748FAF755FD08B1BE2105E037
:1057600033A12448FAF74EFD20B1AF212846FCF7BB
:105770009FFB21E035A11F48FAF744FD08B1BE2187
:1057800005E039A11B48FAF73DFD20B1B4213046B0
:10579000FCF790FB10E03BA11648FAF733FD08B187
:1057A000012205E03EA11348FAF72CFD20B10022AA
:1057B00039464046FBF7ADF94FF480610D48FAF7E2
:1057C00016FD484600F07AF8ADE700000A01002017
:1057D00000040040000C014022746172676574226D
:1057E0003A22536572766F31222C2276616C756590
:1057F000223A3100F8350020227461726765742204
:105800003A22536572766F31222C2276616C75656F
:10581000223A300022746172676574223A2253651D
:1058200072766F32222C2276616C7565223A3100D5
:1058300022746172676574223A22536572766F3200
:10584000222C2276616C7565223A300022746172D6
:10585000676574223A22536572766F33222C227662
:10586000616C7565223A3100227461726765742239
:105870003A22536572766F33222C2276616C7565FD
:10588000223A300022746172676574223A224245DE
:105890004550222C2276616C7565223A3100000059
:1058A00022746172676574223A2242454550222C67
:1058B0002276616C7565223A3000000010B5040054
:1058C00012D00E48006B28B140F2CF420CA113A0B9
:1058D000FCF77EFD00F04AF900212046FEF73AF879
:1058E00000F08EFE002807D110494FF0805008606C
:1058F000BFF34F8FBFF36F8F10BD000090000020EB
:105900002E2E5C4672656552544F535C736F7572F0
:1059100063655C7461736B732E6300004572726F14
:10592000723A25732C25640D0A00000004ED00E096
:1059300001490120C86170479000002070B50D46F4
:10594000040005D140F6063207A10EA0FCF740FD89
:105950001048016820461831FFF73EFD2846BDE893
:1059600070400121FDF7F6BF2E2E5C467265655230
:10597000544F535C736F757263655C7461736B73C2
:105980002E6300004572726F723A25732C25640DE8
:105990000A0000009000002070B514460D46060075
:1059A00005D140F6313209A10FA0FCF711FD1248D4
:1059B000016830461831FFF727FD0CB14FF0FF3575
:1059C00021462846BDE87040FDF7C4BF2E2E5C4638
:1059D00072656552544F535C736F757263655C7486
:1059E00061736B732E6300004572726F723A257398
:1059F0002C25640D0A0000009000002070B5040002
:105A000039D01D4DE06A2968C96A884233D2A0693D
:105A1000002804DB2868C06AC0F12000A061E16AA8
:105A2000164E01EB8101606906EB810188421FD1AE
:105A3000201DFFF7B1FC012150B9E06A00EB8002A4
:105A400056F8222022B92A6901FA00F082432A611D
:105A50002868C06AE0622A6981401143296100EB2D
:105A6000800006EB8000211DBDE87040FFF7CCBC34
:105A70002868C06AE06270BD90000020EC0600203B
:105A800010B5040005D140F6C13205A10BA0FCF70A
:105A90009FFC0E48016A2160C068606010BD000074
:105AA0002E2E5C4672656552544F535C736F75724F
:105AB00063655C7461736B732E6300004572726F73
:105AC000723A25732C25640D0A0000009000002016
:105AD0001CB517480024CDE900402346822215A1B9
